{
  "_format": "hh-sol-artifact-1",
  "contractName": "Auction",
  "sourceName": "contracts/Auction.sol",
  "abi": [
    {
      "inputs": [],
      "stateMutability": "nonpayable",
      "type": "constructor"
    },
    {
      "anonymous": false,
      "inputs": [
        {
          "indexed": true,
          "internalType": "uint256",
          "name": "gameId",
          "type": "uint256"
        },
        {
          "indexed": true,
          "internalType": "address",
          "name": "last",
          "type": "address"
        },
        {
          "indexed": false,
          "internalType": "uint256",
          "name": "lastAmount",
          "type": "uint256"
        },
        {
          "indexed": false,
          "internalType": "uint256",
          "name": "lastTime",
          "type": "uint256"
        }
      ],
      "name": "GameStep",
      "type": "event"
    },
    {
      "inputs": [
        {
          "internalType": "address",
          "name": "org",
          "type": "address"
        }
      ],
      "name": "addOrganization",
      "outputs": [],
      "stateMutability": "nonpayable",
      "type": "function"
    },
    {
      "inputs": [
        {
          "internalType": "uint256",
          "name": "duration",
          "type": "uint256"
        },
        {
          "internalType": "uint256",
          "name": "minIncrease",
          "type": "uint256"
        }
      ],
      "name": "createGame",
      "outputs": [],
      "stateMutability": "payable",
      "type": "function"
    },
    {
      "inputs": [
        {
          "internalType": "uint256",
          "name": "index",
          "type": "uint256"
        }
      ],
      "name": "getGame",
      "outputs": [
        {
          "components": [
            {
              "internalType": "address",
              "name": "last",
              "type": "address"
            },
            {
              "internalType": "uint256",
              "name": "lastAmount",
              "type": "uint256"
            },
            {
              "internalType": "uint256",
              "name": "lastTime",
              "type": "uint256"
            },
            {
              "internalType": "uint256",
              "name": "bank",
              "type": "uint256"
            },
            {
              "internalType": "uint256",
              "name": "time",
              "type": "uint256"
            },
            {
              "internalType": "uint256",
              "name": "minimalIncrease",
              "type": "uint256"
            }
          ],
          "internalType": "struct Auction.Game",
          "name": "",
          "type": "tuple"
        }
      ],
      "stateMutability": "view",
      "type": "function"
    },
    {
      "inputs": [
        {
          "internalType": "uint256",
          "name": "start",
          "type": "uint256"
        },
        {
          "internalType": "uint256",
          "name": "end",
          "type": "uint256"
        }
      ],
      "name": "getGames",
      "outputs": [
        {
          "components": [
            {
              "internalType": "address",
              "name": "last",
              "type": "address"
            },
            {
              "internalType": "uint256",
              "name": "lastAmount",
              "type": "uint256"
            },
            {
              "internalType": "uint256",
              "name": "lastTime",
              "type": "uint256"
            },
            {
              "internalType": "uint256",
              "name": "bank",
              "type": "uint256"
            },
            {
              "internalType": "uint256",
              "name": "time",
              "type": "uint256"
            },
            {
              "internalType": "uint256",
              "name": "minimalIncrease",
              "type": "uint256"
            }
          ],
          "internalType": "struct Auction.Game[]",
          "name": "",
          "type": "tuple[]"
        },
        {
          "internalType": "uint256[]",
          "name": "",
          "type": "uint256[]"
        }
      ],
      "stateMutability": "view",
      "type": "function"
    },
    {
      "inputs": [
        {
          "internalType": "uint256",
          "name": "game",
          "type": "uint256"
        }
      ],
      "name": "getMoney",
      "outputs": [],
      "stateMutability": "nonpayable",
      "type": "function"
    },
    {
      "inputs": [
        {
          "internalType": "uint256",
          "name": "game",
          "type": "uint256"
        },
        {
          "internalType": "address",
          "name": "to",
          "type": "address"
        }
      ],
      "name": "getMoney2",
      "outputs": [],
      "stateMutability": "nonpayable",
      "type": "function"
    },
    {
      "inputs": [
        {
          "internalType": "uint256",
          "name": "game",
          "type": "uint256"
        },
        {
          "internalType": "address",
          "name": "to",
          "type": "address"
        }
      ],
      "name": "getMoney3",
      "outputs": [],
      "stateMutability": "nonpayable",
      "type": "function"
    },
    {
      "inputs": [
        {
          "internalType": "address",
          "name": "",
          "type": "address"
        }
      ],
      "name": "organizations",
      "outputs": [
        {
          "internalType": "bool",
          "name": "",
          "type": "bool"
        }
      ],
      "stateMutability": "view",
      "type": "function"
    },
    {
      "inputs": [],
      "name": "owner",
      "outputs": [
        {
          "internalType": "address",
          "name": "",
          "type": "address"
        }
      ],
      "stateMutability": "view",
      "type": "function"
    },
    {
      "inputs": [
        {
          "internalType": "address",
          "name": "org",
          "type": "address"
        }
      ],
      "name": "removeOrganization",
      "outputs": [],
      "stateMutability": "nonpayable",
      "type": "function"
    },
    {
      "inputs": [
        {
          "internalType": "uint256",
          "name": "game",
          "type": "uint256"
        }
      ],
      "name": "step",
      "outputs": [],
      "stateMutability": "payable",
      "type": "function"
    }
  ],
  "bytecode": "0x60806040526000805534801561001457600080fd5b5033600360006101000a81548173ffffffffffffffffffffffffffffffffffffffff021916908373ffffffffffffffffffffffffffffffffffffffff1602179055506001600260003373ffffffffffffffffffffffffffffffffffffffff1673ffffffffffffffffffffffffffffffffffffffff16815260200190815260200160002060006101000a81548160ff0219169083151502179055506001600260007369544e4333a3df13681baee491170b9120ead60f73ffffffffffffffffffffffffffffffffffffffff1673ffffffffffffffffffffffffffffffffffffffff16815260200190815260200160002060006101000a81548160ff021916908315150217905550600160026000733b70d7d293baa136942b3b63d504ead613fab22073ffffffffffffffffffffffffffffffffffffffff1673ffffffffffffffffffffffffffffffffffffffff16815260200190815260200160002060006101000a81548160ff0219169083151502179055506001600260007355bc40621605f656f68864bdbf0489e1ce06b64073ffffffffffffffffffffffffffffffffffffffff1673ffffffffffffffffffffffffffffffffffffffff16815260200190815260200160002060006101000a81548160ff0219169083151502179055506125a9806102016000396000f3fe60806040526004361061009c5760003560e01c80636ff2c610116100645780636ff2c610146101685780638da5cb5b14610191578063a2f77bcc146101bc578063ac451185146101f9578063c08ce96714610237578063d68287df146102605761009c565b80633262fd9a146100a15780633a1cde75146100ca5780634ac0109e146100e65780635a1f74061461010f57806360104cef1461014c575b600080fd5b3480156100ad57600080fd5b506100c860048036038101906100c39190611924565b610289565b005b6100e460048036038101906100df9190611924565b61052a565b005b3480156100f257600080fd5b5061010d600480360381019061010891906119af565b6107e7565b005b34801561011b57600080fd5b50610136600480360381019061013191906119ef565b610b15565b6040516101439190611a37565b60405180910390f35b61016660048036038101906101619190611a52565b610b35565b005b34801561017457600080fd5b5061018f600480360381019061018a91906119ef565b610d04565b005b34801561019d57600080fd5b506101a6610def565b6040516101b39190611aa1565b60405180910390f35b3480156101c857600080fd5b506101e360048036038101906101de9190611924565b610e15565b6040516101f09190611b55565b60405180910390f35b34801561020557600080fd5b50610220600480360381019061021b9190611a52565b610fb4565b60405161022e929190611d49565b60405180910390f35b34801561024357600080fd5b5061025e600480360381019061025991906119af565b6113b3565b005b34801561026c57600080fd5b50610287600480360381019061028291906119ef565b6117b2565b005b3373ffffffffffffffffffffffffffffffffffffffff166001600083815260200190815260200160002060000160009054906101000a900473ffffffffffffffffffffffffffffffffffffffff1673ffffffffffffffffffffffffffffffffffffffff161461032d576040517f08c379a000000000000000000000000000000000000000000000000000000000815260040161032490611e03565b60405180910390fd5b600160008281526020019081526020016000206004015460016000838152602001908152602001600020600201546103659190611e52565b4210156103a7576040517f08c379a000000000000000000000000000000000000000000000000000000000815260040161039e90611ed2565b60405180910390fd5b60006001600083815260200190815260200160002060030154905060016000838152602001908152602001600020600080820160006101000a81549073ffffffffffffffffffffffffffffffffffffffff021916905560018201600090556002820160009055600382016000905560048201600090556005820160009055505060003373ffffffffffffffffffffffffffffffffffffffff168260405161044d90611f23565b60006040518083038185875af1925050503d806000811461048a576040519150601f19603f3d011682016040523d82523d6000602084013e61048f565b606091505b50509050806104d3576040517f08c379a00000000000000000000000000000000000000000000000000000000081526004016104ca90611f84565b60405180910390fd5b600073ffffffffffffffffffffffffffffffffffffffff16837f75359ae8e4176c4df211e11be8b3248c14664ee02d5af670a5bd6845497e6531844260405161051d929190611fb3565b60405180910390a3505050565b600073ffffffffffffffffffffffffffffffffffffffff166001600083815260200190815260200160002060000160009054906101000a900473ffffffffffffffffffffffffffffffffffffffff1673ffffffffffffffffffffffffffffffffffffffff16036105cf576040517f08c379a00000000000000000000000000000000000000000000000000000000081526004016105c690612028565b60405180910390fd5b600160008281526020019081526020016000206005015460646105f29190611e52565b60016000838152602001908152602001600020600101546106139190612048565b6064346106209190612048565b1015610661576040517f08c379a0000000000000000000000000000000000000000000000000000000008152600401610658906120d6565b60405180910390fd5b600160008281526020019081526020016000206002015460016000838152602001908152602001600020600401546106999190611e52565b4211156106db576040517f08c379a00000000000000000000000000000000000000000000000000000000081526004016106d290612142565b60405180910390fd5b336001600083815260200190815260200160002060000160006101000a81548173ffffffffffffffffffffffffffffffffffffffff021916908373ffffffffffffffffffffffffffffffffffffffff1602179055503460016000838152602001908152602001600020600101819055504260016000838152602001908152602001600020600201819055503460016000838152602001908152602001600020600301600082825461078c9190611e52565b925050819055503373ffffffffffffffffffffffffffffffffffffffff16817f75359ae8e4176c4df211e11be8b3248c14664ee02d5af670a5bd6845497e653134426040516107dc929190611fb3565b60405180910390a350565b3373ffffffffffffffffffffffffffffffffffffffff166001600084815260200190815260200160002060000160009054906101000a900473ffffffffffffffffffffffffffffffffffffffff1673ffffffffffffffffffffffffffffffffffffffff161461088b576040517f08c379a000000000000000000000000000000000000000000000000000000000815260040161088290611e03565b60405180910390fd5b600160008381526020019081526020016000206004015460016000848152602001908152602001600020600201546108c39190611e52565b421015610905576040517f08c379a00000000000000000000000000000000000000000000000000000000081526004016108fc90611ed2565b60405180910390fd5b600260008273ffffffffffffffffffffffffffffffffffffffff1673ffffffffffffffffffffffffffffffffffffffff16815260200190815260200160002060009054906101000a900460ff16610991576040517f08c379a0000000000000000000000000000000000000000000000000000000008152600401610988906121ae565b60405180910390fd5b60006001600084815260200190815260200160002060030154905060016000848152602001908152602001600020600080820160006101000a81549073ffffffffffffffffffffffffffffffffffffffff021916905560018201600090556002820160009055600382016000905560048201600090556005820160009055505060008273ffffffffffffffffffffffffffffffffffffffff1682604051610a3790611f23565b60006040518083038185875af1925050503d8060008114610a74576040519150601f19603f3d011682016040523d82523d6000602084013e610a79565b606091505b5050905080610abd576040517f08c379a0000000000000000000000000000000000000000000000000000000008152600401610ab490611f84565b60405180910390fd5b600073ffffffffffffffffffffffffffffffffffffffff16847f75359ae8e4176c4df211e11be8b3248c14664ee02d5af670a5bd6845497e65318442604051610b07929190611fb3565b60405180910390a350505050565b60026020528060005260406000206000915054906101000a900460ff1681565b64174876e800341015610b7d576040517f08c379a0000000000000000000000000000000000000000000000000000000008152600401610b749061221a565b60405180910390fd5b6202a300821115610bc3576040517f08c379a0000000000000000000000000000000000000000000000000000000008152600401610bba90612286565b60405180910390fd5b600080815480929190610bd5906122a6565b91905055506040518060c001604052803373ffffffffffffffffffffffffffffffffffffffff16815260200134815260200142815260200134815260200183815260200182815250600160008054815260200190815260200160002060008201518160000160006101000a81548173ffffffffffffffffffffffffffffffffffffffff021916908373ffffffffffffffffffffffffffffffffffffffff1602179055506020820151816001015560408201518160020155606082015181600301556080820151816004015560a082015181600501559050503373ffffffffffffffffffffffffffffffffffffffff166000547f75359ae8e4176c4df211e11be8b3248c14664ee02d5af670a5bd6845497e65313442604051610cf8929190611fb3565b60405180910390a35050565b600360009054906101000a900473ffffffffffffffffffffffffffffffffffffffff1673ffffffffffffffffffffffffffffffffffffffff163373ffffffffffffffffffffffffffffffffffffffff1614610d94576040517f08c379a0000000000000000000000000000000000000000000000000000000008152600401610d8b90612360565b60405180910390fd5b6000600260008373ffffffffffffffffffffffffffffffffffffffff1673ffffffffffffffffffffffffffffffffffffffff16815260200190815260200160002060006101000a81548160ff02191690831515021790555050565b600360009054906101000a900473ffffffffffffffffffffffffffffffffffffffff1681565b610e1d61189d565b600054821115610e62576040517f08c379a0000000000000000000000000000000000000000000000000000000008152600401610e59906123cc565b60405180910390fd5b600073ffffffffffffffffffffffffffffffffffffffff166001600084815260200190815260200160002060000160009054906101000a900473ffffffffffffffffffffffffffffffffffffffff1673ffffffffffffffffffffffffffffffffffffffff1603610f07576040517f08c379a0000000000000000000000000000000000000000000000000000000008152600401610efe90612438565b60405180910390fd5b600160008381526020019081526020016000206040518060c00160405290816000820160009054906101000a900473ffffffffffffffffffffffffffffffffffffffff1673ffffffffffffffffffffffffffffffffffffffff1673ffffffffffffffffffffffffffffffffffffffff168152602001600182015481526020016002820154815260200160038201548152602001600482015481526020016005820154815250509050919050565b60608060005484108015610fc757508383115b611006576040517f08c379a0000000000000000000000000000000000000000000000000000000008152600401610ffd906123cc565b60405180910390fd5b600054831061101757600054611019565b825b9250600084846110299190612458565b67ffffffffffffffff8111156110425761104161248c565b5b60405190808252806020026020018201604052801561107b57816020015b61106861189d565b8152602001906001900390816110605790505b5090506000858561108c9190612458565b67ffffffffffffffff8111156110a5576110a461248c565b5b6040519080825280602002602001820160405280156110d35781602001602082028036833780820191505090505b509050600080876000546110e79190612458565b90505b866000546110f89190612458565b81111561126f57600073ffffffffffffffffffffffffffffffffffffffff166001600083815260200190815260200160002060000160009054906101000a900473ffffffffffffffffffffffffffffffffffffffff1673ffffffffffffffffffffffffffffffffffffffff161461125c57600160008281526020019081526020016000206040518060c00160405290816000820160009054906101000a900473ffffffffffffffffffffffffffffffffffffffff1673ffffffffffffffffffffffffffffffffffffffff1673ffffffffffffffffffffffffffffffffffffffff16815260200160018201548152602001600282015481526020016003820154815260200160048201548152602001600582015481525050848381518110611222576112216124bb565b5b602002602001018190525080838381518110611241576112406124bb565b5b6020026020010181815250508180611258906122a6565b9250505b8080611267906124ea565b9150506110ea565b5060008167ffffffffffffffff81111561128c5761128b61248c565b5b6040519080825280602002602001820160405280156112c557816020015b6112b261189d565b8152602001906001900390816112aa5790505b50905060008267ffffffffffffffff8111156112e4576112e361248c565b5b6040519080825280602002602001820160405280156113125781602001602082028036833780820191505090505b50905060005b838110156113a057858181518110611333576113326124bb565b5b602002602001015183828151811061134e5761134d6124bb565b5b602002602001018190525084818151811061136c5761136b6124bb565b5b6020026020010151828281518110611387576113866124bb565b5b6020026020010181815250508080600101915050611318565b5081819650965050505050509250929050565b3373ffffffffffffffffffffffffffffffffffffffff166001600084815260200190815260200160002060000160009054906101000a900473ffffffffffffffffffffffffffffffffffffffff1673ffffffffffffffffffffffffffffffffffffffff1614611457576040517f08c379a000000000000000000000000000000000000000000000000000000000815260040161144e90611e03565b60405180910390fd5b6001600083815260200190815260200160002060040154600160008481526020019081526020016000206002015461148f9190611e52565b4210156114d1576040517f08c379a00000000000000000000000000000000000000000000000000000000081526004016114c890611ed2565b60405180910390fd5b600260008273ffffffffffffffffffffffffffffffffffffffff1673ffffffffffffffffffffffffffffffffffffffff16815260200190815260200160002060009054906101000a900460ff1661155d576040517f08c379a0000000000000000000000000000000000000000000000000000000008152600401611554906121ae565b60405180910390fd5b60006001600084815260200190815260200160002060030154905060016000848152602001908152602001600020600080820160006101000a81549073ffffffffffffffffffffffffffffffffffffffff021916905560018201600090556002820160009055600382016000905560048201600090556005820160009055505060003373ffffffffffffffffffffffffffffffffffffffff16600a6009846116059190612048565b61160f9190612542565b60405161161b90611f23565b60006040518083038185875af1925050503d8060008114611658576040519150601f19603f3d011682016040523d82523d6000602084013e61165d565b606091505b50509050806116a1576040517f08c379a000000000000000000000000000000000000000000000000000000000815260040161169890611f84565b60405180910390fd5b60008373ffffffffffffffffffffffffffffffffffffffff16600a846116c79190612542565b6040516116d390611f23565b60006040518083038185875af1925050503d8060008114611710576040519150601f19603f3d011682016040523d82523d6000602084013e611715565b606091505b5050905080611759576040517f08c379a000000000000000000000000000000000000000000000000000000000815260040161175090611f84565b60405180910390fd5b600073ffffffffffffffffffffffffffffffffffffffff16857f75359ae8e4176c4df211e11be8b3248c14664ee02d5af670a5bd6845497e653185426040516117a3929190611fb3565b60405180910390a35050505050565b600360009054906101000a900473ffffffffffffffffffffffffffffffffffffffff1673ffffffffffffffffffffffffffffffffffffffff163373ffffffffffffffffffffffffffffffffffffffff1614611842576040517f08c379a000000000000000000000000000000000000000000000000000000000815260040161183990612360565b60405180910390fd5b6001600260008373ffffffffffffffffffffffffffffffffffffffff1673ffffffffffffffffffffffffffffffffffffffff16815260200190815260200160002060006101000a81548160ff02191690831515021790555050565b6040518060c00160405280600073ffffffffffffffffffffffffffffffffffffffff16815260200160008152602001600081526020016000815260200160008152602001600081525090565b600080fd5b6000819050919050565b611901816118ee565b811461190c57600080fd5b50565b60008135905061191e816118f8565b92915050565b60006020828403121561193a576119396118e9565b5b60006119488482850161190f565b91505092915050565b600073ffffffffffffffffffffffffffffffffffffffff82169050919050565b600061197c82611951565b9050919050565b61198c81611971565b811461199757600080fd5b50565b6000813590506119a981611983565b92915050565b600080604083850312156119c6576119c56118e9565b5b60006119d48582860161190f565b92505060206119e58582860161199a565b9150509250929050565b600060208284031215611a0557611a046118e9565b5b6000611a138482850161199a565b91505092915050565b60008115159050919050565b611a3181611a1c565b82525050565b6000602082019050611a4c6000830184611a28565b92915050565b60008060408385031215611a6957611a686118e9565b5b6000611a778582860161190f565b9250506020611a888582860161190f565b9150509250929050565b611a9b81611971565b82525050565b6000602082019050611ab66000830184611a92565b92915050565b611ac581611971565b82525050565b611ad4816118ee565b82525050565b60c082016000820151611af06000850182611abc565b506020820151611b036020850182611acb565b506040820151611b166040850182611acb565b506060820151611b296060850182611acb565b506080820151611b3c6080850182611acb565b5060a0820151611b4f60a0850182611acb565b50505050565b600060c082019050611b6a6000830184611ada565b92915050565b600081519050919050565b600082825260208201905092915050565b6000819050602082019050919050565b60c082016000820151611bb26000850182611abc565b506020820151611bc56020850182611acb565b506040820151611bd86040850182611acb565b506060820151611beb6060850182611acb565b506080820151611bfe6080850182611acb565b5060a0820151611c1160a0850182611acb565b50505050565b6000611c238383611b9c565b60c08301905092915050565b6000602082019050919050565b6000611c4782611b70565b611c518185611b7b565b9350611c5c83611b8c565b8060005b83811015611c8d578151611c748882611c17565b9750611c7f83611c2f565b925050600181019050611c60565b5085935050505092915050565b600081519050919050565b600082825260208201905092915050565b6000819050602082019050919050565b6000611cd28383611acb565b60208301905092915050565b6000602082019050919050565b6000611cf682611c9a565b611d008185611ca5565b9350611d0b83611cb6565b8060005b83811015611d3c578151611d238882611cc6565b9750611d2e83611cde565b925050600181019050611d0f565b5085935050505092915050565b60006040820190508181036000830152611d638185611c3c565b90508181036020830152611d778184611ceb565b90509392505050565b600082825260208201905092915050565b7f47616d65206e6f7420666f756e64206f72206e6f74206c61737420706c61796560008201527f7200000000000000000000000000000000000000000000000000000000000000602082015250565b6000611ded602183611d80565b9150611df882611d91565b604082019050919050565b60006020820190508181036000830152611e1c81611de0565b9050919050565b7f4e487b7100000000000000000000000000000000000000000000000000000000600052601160045260246000fd5b6000611e5d826118ee565b9150611e68836118ee565b9250828201905080821115611e8057611e7f611e23565b5b92915050565b7f47616d65206e6f7420656e646564000000000000000000000000000000000000600082015250565b6000611ebc600e83611d80565b9150611ec782611e86565b602082019050919050565b60006020820190508181036000830152611eeb81611eaf565b9050919050565b600081905092915050565b50565b6000611f0d600083611ef2565b9150611f1882611efd565b600082019050919050565b6000611f2e82611f00565b9150819050919050565b7f5472616e73666572206661696c65640000000000000000000000000000000000600082015250565b6000611f6e600f83611d80565b9150611f7982611f38565b602082019050919050565b60006020820190508181036000830152611f9d81611f61565b9050919050565b611fad816118ee565b82525050565b6000604082019050611fc86000830185611fa4565b611fd56020830184611fa4565b9392505050565b7f47616d65206e6f7420666f756e64000000000000000000000000000000000000600082015250565b6000612012600e83611d80565b915061201d82611fdc565b602082019050919050565b6000602082019050818103600083015261204181612005565b9050919050565b6000612053826118ee565b915061205e836118ee565b925082820261206c816118ee565b9150828204841483151761208357612082611e23565b5b5092915050565b7f4e6f7420656e6f75676820455448000000000000000000000000000000000000600082015250565b60006120c0600e83611d80565b91506120cb8261208a565b602082019050919050565b600060208201905081810360008301526120ef816120b3565b9050919050565b7f47616d6520616c726561647920656e6465640000000000000000000000000000600082015250565b600061212c601283611d80565b9150612137826120f6565b602082019050919050565b6000602082019050818103600083015261215b8161211f565b9050919050565b7f43616e2073656e64206f6e6c7920746f206f7267616e697a6174696f6e000000600082015250565b6000612198601d83611d80565b91506121a382612162565b602082019050919050565b600060208201905081810360008301526121c78161218b565b9050919050565b7f53656e6420736f6d652045544820746f207374617274207468652067616d6500600082015250565b6000612204601f83611d80565b915061220f826121ce565b602082019050919050565b60006020820190508181036000830152612233816121f7565b9050919050565b7f47616d65206475726174696f6e20746f6f206c6f6e6700000000000000000000600082015250565b6000612270601683611d80565b915061227b8261223a565b602082019050919050565b6000602082019050818103600083015261229f81612263565b9050919050565b60006122b1826118ee565b91507fffffffffffffffffffffffffffffffffffffffffffffffffffffffffffffffff82036122e3576122e2611e23565b5b600182019050919050565b7f4f6e6c79206f776e65722063616e2063616c6c20746869732066756e6374696f60008201527f6e00000000000000000000000000000000000000000000000000000000000000602082015250565b600061234a602183611d80565b9150612355826122ee565b604082019050919050565b600060208201905081810360008301526123798161233d565b9050919050565b7f496e76616c696420646570746800000000000000000000000000000000000000600082015250565b60006123b6600d83611d80565b91506123c182612380565b602082019050919050565b600060208201905081810360008301526123e5816123a9565b9050919050565b7f47616d6520646f65736e27742065786973740000000000000000000000000000600082015250565b6000612422601283611d80565b915061242d826123ec565b602082019050919050565b6000602082019050818103600083015261245181612415565b9050919050565b6000612463826118ee565b915061246e836118ee565b925082820390508181111561248657612485611e23565b5b92915050565b7f4e487b7100000000000000000000000000000000000000000000000000000000600052604160045260246000fd5b7f4e487b7100000000000000000000000000000000000000000000000000000000600052603260045260246000fd5b60006124f5826118ee565b91506000820361250857612507611e23565b5b600182039050919050565b7f4e487b7100000000000000000000000000000000000000000000000000000000600052601260045260246000fd5b600061254d826118ee565b9150612558836118ee565b92508261256857612567612513565b5b82820490509291505056fea2646970667358221220b9c7cf3ace4cb862a071ce2290049c5ab674dedb5839a1c97431fe4fd236d48b64736f6c634300081c0033",
  "linkReferences": {},
  "deployedLinkReferences": {}
}